{
  "contractName": "ERC1820Implementer",
  "abi": [
    {
      "constant": true,
      "inputs": [
        {
          "internalType": "bytes32",
          "name": "interfaceHash",
          "type": "bytes32"
        },
        {
          "internalType": "address",
          "name": "account",
          "type": "address"
        }
      ],
      "name": "canImplementInterfaceForAddress",
      "outputs": [
        {
          "internalType": "bytes32",
          "name": "",
          "type": "bytes32"
        }
      ],
      "payable": false,
      "stateMutability": "view",
      "type": "function"
    }
  ],
  "bytecode": "0x608060405234801561001057600080fd5b50610183806100206000396000f3fe608060405234801561001057600080fd5b506004361061002b5760003560e01c8063249cb3fa14610030575b600080fd5b61007c6004803603604081101561004657600080fd5b8101908080359060200190929190803573ffffffffffffffffffffffffffffffffffffffff169060200190929190505050610092565b6040518082815260200191505060405180910390f35b600080600084815260200190815260200160002060008373ffffffffffffffffffffffffffffffffffffffff1673ffffffffffffffffffffffffffffffffffffffff16815260200190815260200160002060009054906101000a900460ff166100fe576000801b610146565b60405160200180807f455243313832305f4143434550545f4d414749430000000000000000000000008152506014019050604051602081830303815290604052805190602001205b90509291505056fea265627a7a72315820d3eb2ceafb70a286b71969c6d9ddfc90b7c45e6293fa89ebbe13f75abbb4be8364736f6c63430005100032",
  "source": "pragma solidity ^0.5.0;\n\nimport \"./IERC1820Implementer.sol\";\n\n/**\n * @dev Implementation of the `IERC1820Implementer` interface.\n *\n * Contracts may inherit from this and call `_registerInterfaceForAddress` to\n * declare their willingness to be implementers.\n * `IERC1820Registry.setInterfaceImplementer` should then be called for the\n * registration to be complete.\n */\ncontract ERC1820Implementer is IERC1820Implementer {\n    bytes32 constant private ERC1820_ACCEPT_MAGIC = keccak256(abi.encodePacked(\"ERC1820_ACCEPT_MAGIC\"));\n\n    mapping(bytes32 => mapping(address => bool)) private _supportedInterfaces;\n\n    /**\n     * See `IERC1820Implementer.canImplementInterfaceForAddress`.\n     */\n    function canImplementInterfaceForAddress(bytes32 interfaceHash, address account) external view returns (bytes32) {\n        return _supportedInterfaces[interfaceHash][account] ? ERC1820_ACCEPT_MAGIC : bytes32(0x00);\n    }\n\n    /**\n     * @dev Declares the contract as willing to be an implementer of\n     * `interfaceHash` for `account`.\n     *\n     * See `IERC1820Registry.setInterfaceImplementer` and\n     * `IERC1820Registry.interfaceHash`.\n     */\n    function _registerInterfaceForAddress(bytes32 interfaceHash, address account) internal {\n        _supportedInterfaces[interfaceHash][account] = true;\n    }\n}\n",
  "sourcePath": "/home/sui41/Documents/cryptogig/aSAPhustle/propertyExchange/property-exchange/contracts/openzeppelin-solidity/contracts/introspection/ERC1820Implementer.sol",
  "compiler": {
    "name": "solc",
    "version": "0.5.16+commit.9c3226ce.Emscripten.clang"
  },
  "schemaVersion": "3.4.3",
  "updatedAt": "2022-01-25T15:02:00.913Z",
  "devdoc": {
    "details": "Implementation of the `IERC1820Implementer` interface. * Contracts may inherit from this and call `_registerInterfaceForAddress` to declare their willingness to be implementers. `IERC1820Registry.setInterfaceImplementer` should then be called for the registration to be complete.",
    "methods": {}
  },
  "userdoc": {
    "methods": {
      "canImplementInterfaceForAddress(bytes32,address)": {
        "notice": "See `IERC1820Implementer.canImplementInterfaceForAddress`."
      }
    }
  }
}