{
  "contractName": "PropertyExchange",
  "abi": [
    {
      "inputs": [],
      "payable": true,
      "stateMutability": "payable",
      "type": "constructor"
    },
    {
      "anonymous": false,
      "inputs": [
        {
          "indexed": true,
          "internalType": "address",
          "name": "owner",
          "type": "address"
        },
        {
          "indexed": true,
          "internalType": "address",
          "name": "approved",
          "type": "address"
        },
        {
          "indexed": true,
          "internalType": "uint256",
          "name": "tokenId",
          "type": "uint256"
        }
      ],
      "name": "Approval",
      "type": "event"
    },
    {
      "anonymous": false,
      "inputs": [
        {
          "indexed": true,
          "internalType": "address",
          "name": "owner",
          "type": "address"
        },
        {
          "indexed": true,
          "internalType": "address",
          "name": "operator",
          "type": "address"
        },
        {
          "indexed": false,
          "internalType": "bool",
          "name": "approved",
          "type": "bool"
        }
      ],
      "name": "ApprovalForAll",
      "type": "event"
    },
    {
      "anonymous": false,
      "inputs": [
        {
          "indexed": false,
          "internalType": "uint256",
          "name": "_coinId",
          "type": "uint256"
        },
        {
          "indexed": false,
          "internalType": "uint256",
          "name": "_propertyId",
          "type": "uint256"
        }
      ],
      "name": "CoinGenerated",
      "type": "event"
    },
    {
      "anonymous": false,
      "inputs": [
        {
          "indexed": true,
          "internalType": "address",
          "name": "_user",
          "type": "address"
        },
        {
          "indexed": false,
          "internalType": "uint256",
          "name": "_coinId",
          "type": "uint256"
        },
        {
          "indexed": false,
          "internalType": "address",
          "name": "_owner",
          "type": "address"
        }
      ],
      "name": "LogAgreementSigned",
      "type": "event"
    },
    {
      "anonymous": false,
      "inputs": [
        {
          "indexed": true,
          "internalType": "address",
          "name": "_buyer",
          "type": "address"
        },
        {
          "indexed": false,
          "internalType": "address",
          "name": "_escrow",
          "type": "address"
        }
      ],
      "name": "LogEscrowAdded",
      "type": "event"
    },
    {
      "anonymous": false,
      "inputs": [
        {
          "indexed": true,
          "internalType": "uint256",
          "name": "_propertyId",
          "type": "uint256"
        },
        {
          "indexed": false,
          "internalType": "uint256",
          "name": "_coinId",
          "type": "uint256"
        },
        {
          "indexed": false,
          "internalType": "uint256",
          "name": "_value",
          "type": "uint256"
        }
      ],
      "name": "LogPropertyAdded",
      "type": "event"
    },
    {
      "anonymous": false,
      "inputs": [
        {
          "indexed": true,
          "internalType": "address",
          "name": "_from",
          "type": "address"
        },
        {
          "indexed": false,
          "internalType": "address",
          "name": "_to",
          "type": "address"
        },
        {
          "indexed": false,
          "internalType": "uint256",
          "name": "_coinId",
          "type": "uint256"
        }
      ],
      "name": "LogPropertyTransfer",
      "type": "event"
    },
    {
      "anonymous": false,
      "inputs": [
        {
          "indexed": true,
          "internalType": "address",
          "name": "_from",
          "type": "address"
        },
        {
          "indexed": false,
          "internalType": "address",
          "name": "_escrow",
          "type": "address"
        },
        {
          "indexed": false,
          "internalType": "uint256",
          "name": "_amount",
          "type": "uint256"
        }
      ],
      "name": "LogTransferToEscrow",
      "type": "event"
    },
    {
      "anonymous": false,
      "inputs": [
        {
          "indexed": true,
          "internalType": "address",
          "name": "_user",
          "type": "address"
        },
        {
          "indexed": false,
          "internalType": "bool",
          "name": "_isEscrow",
          "type": "bool"
        }
      ],
      "name": "LogUserRegistered",
      "type": "event"
    },
    {
      "anonymous": false,
      "inputs": [
        {
          "indexed": true,
          "internalType": "address",
          "name": "_user",
          "type": "address"
        },
        {
          "indexed": false,
          "internalType": "bool",
          "name": "_isEscrow",
          "type": "bool"
        }
      ],
      "name": "LogUserUnregistered",
      "type": "event"
    },
    {
      "anonymous": false,
      "inputs": [
        {
          "indexed": false,
          "internalType": "address",
          "name": "account",
          "type": "address"
        }
      ],
      "name": "Paused",
      "type": "event"
    },
    {
      "anonymous": false,
      "inputs": [
        {
          "indexed": true,
          "internalType": "address",
          "name": "account",
          "type": "address"
        }
      ],
      "name": "PauserAdded",
      "type": "event"
    },
    {
      "anonymous": false,
      "inputs": [
        {
          "indexed": true,
          "internalType": "address",
          "name": "account",
          "type": "address"
        }
      ],
      "name": "PauserRemoved",
      "type": "event"
    },
    {
      "anonymous": false,
      "inputs": [
        {
          "indexed": true,
          "internalType": "address",
          "name": "from",
          "type": "address"
        },
        {
          "indexed": true,
          "internalType": "address",
          "name": "to",
          "type": "address"
        },
        {
          "indexed": true,
          "internalType": "uint256",
          "name": "tokenId",
          "type": "uint256"
        }
      ],
      "name": "Transfer",
      "type": "event"
    },
    {
      "anonymous": false,
      "inputs": [
        {
          "indexed": false,
          "internalType": "address",
          "name": "account",
          "type": "address"
        }
      ],
      "name": "Unpaused",
      "type": "event"
    },
    {
      "constant": false,
      "inputs": [
        {
          "internalType": "address",
          "name": "account",
          "type": "address"
        }
      ],
      "name": "addPauser",
      "outputs": [],
      "payable": false,
      "stateMutability": "nonpayable",
      "type": "function"
    },
    {
      "constant": false,
      "inputs": [
        {
          "internalType": "address",
          "name": "to",
          "type": "address"
        },
        {
          "internalType": "uint256",
          "name": "tokenId",
          "type": "uint256"
        }
      ],
      "name": "approve",
      "outputs": [],
      "payable": false,
      "stateMutability": "nonpayable",
      "type": "function"
    },
    {
      "constant": true,
      "inputs": [
        {
          "internalType": "address",
          "name": "owner",
          "type": "address"
        }
      ],
      "name": "balanceOf",
      "outputs": [
        {
          "internalType": "uint256",
          "name": "",
          "type": "uint256"
        }
      ],
      "payable": false,
      "stateMutability": "view",
      "type": "function"
    },
    {
      "constant": true,
      "inputs": [
        {
          "internalType": "address",
          "name": "",
          "type": "address"
        }
      ],
      "name": "escrows",
      "outputs": [
        {
          "internalType": "bool",
          "name": "isRegistered",
          "type": "bool"
        }
      ],
      "payable": false,
      "stateMutability": "view",
      "type": "function"
    },
    {
      "constant": true,
      "inputs": [
        {
          "internalType": "uint256",
          "name": "tokenId",
          "type": "uint256"
        }
      ],
      "name": "getApproved",
      "outputs": [
        {
          "internalType": "address",
          "name": "",
          "type": "address"
        }
      ],
      "payable": false,
      "stateMutability": "view",
      "type": "function"
    },
    {
      "constant": true,
      "inputs": [
        {
          "internalType": "uint256",
          "name": "_coinId",
          "type": "uint256"
        }
      ],
      "name": "getPropertyValue",
      "outputs": [
        {
          "internalType": "uint256",
          "name": "_valueInEth",
          "type": "uint256"
        }
      ],
      "payable": false,
      "stateMutability": "view",
      "type": "function"
    },
    {
      "constant": true,
      "inputs": [
        {
          "internalType": "address",
          "name": "owner",
          "type": "address"
        },
        {
          "internalType": "address",
          "name": "operator",
          "type": "address"
        }
      ],
      "name": "isApprovedForAll",
      "outputs": [
        {
          "internalType": "bool",
          "name": "",
          "type": "bool"
        }
      ],
      "payable": false,
      "stateMutability": "view",
      "type": "function"
    },
    {
      "constant": true,
      "inputs": [
        {
          "internalType": "address",
          "name": "account",
          "type": "address"
        }
      ],
      "name": "isPauser",
      "outputs": [
        {
          "internalType": "bool",
          "name": "",
          "type": "bool"
        }
      ],
      "payable": false,
      "stateMutability": "view",
      "type": "function"
    },
    {
      "constant": false,
      "inputs": [
        {
          "internalType": "uint256",
          "name": "_propertyId",
          "type": "uint256"
        },
        {
          "internalType": "uint256",
          "name": "_value",
          "type": "uint256"
        }
      ],
      "name": "mint",
      "outputs": [
        {
          "internalType": "uint256",
          "name": "",
          "type": "uint256"
        }
      ],
      "payable": true,
      "stateMutability": "payable",
      "type": "function"
    },
    {
      "constant": true,
      "inputs": [],
      "name": "name",
      "outputs": [
        {
          "internalType": "string",
          "name": "",
          "type": "string"
        }
      ],
      "payable": false,
      "stateMutability": "view",
      "type": "function"
    },
    {
      "constant": true,
      "inputs": [],
      "name": "owner",
      "outputs": [
        {
          "internalType": "address payable",
          "name": "",
          "type": "address"
        }
      ],
      "payable": false,
      "stateMutability": "view",
      "type": "function"
    },
    {
      "constant": true,
      "inputs": [
        {
          "internalType": "uint256",
          "name": "tokenId",
          "type": "uint256"
        }
      ],
      "name": "ownerOf",
      "outputs": [
        {
          "internalType": "address",
          "name": "",
          "type": "address"
        }
      ],
      "payable": false,
      "stateMutability": "view",
      "type": "function"
    },
    {
      "constant": false,
      "inputs": [],
      "name": "pause",
      "outputs": [],
      "payable": false,
      "stateMutability": "nonpayable",
      "type": "function"
    },
    {
      "constant": true,
      "inputs": [],
      "name": "paused",
      "outputs": [
        {
          "internalType": "bool",
          "name": "",
          "type": "bool"
        }
      ],
      "payable": false,
      "stateMutability": "view",
      "type": "function"
    },
    {
      "constant": true,
      "inputs": [
        {
          "internalType": "uint256",
          "name": "",
          "type": "uint256"
        }
      ],
      "name": "pxCoins",
      "outputs": [
        {
          "internalType": "uint256",
          "name": "propertyId",
          "type": "uint256"
        },
        {
          "internalType": "uint256",
          "name": "valueInEth",
          "type": "uint256"
        }
      ],
      "payable": false,
      "stateMutability": "view",
      "type": "function"
    },
    {
      "constant": false,
      "inputs": [],
      "name": "renouncePauser",
      "outputs": [],
      "payable": false,
      "stateMutability": "nonpayable",
      "type": "function"
    },
    {
      "constant": false,
      "inputs": [
        {
          "internalType": "address",
          "name": "from",
          "type": "address"
        },
        {
          "internalType": "address",
          "name": "to",
          "type": "address"
        },
        {
          "internalType": "uint256",
          "name": "tokenId",
          "type": "uint256"
        }
      ],
      "name": "safeTransferFrom",
      "outputs": [],
      "payable": false,
      "stateMutability": "nonpayable",
      "type": "function"
    },
    {
      "constant": false,
      "inputs": [
        {
          "internalType": "address",
          "name": "from",
          "type": "address"
        },
        {
          "internalType": "address",
          "name": "to",
          "type": "address"
        },
        {
          "internalType": "uint256",
          "name": "tokenId",
          "type": "uint256"
        },
        {
          "internalType": "bytes",
          "name": "_data",
          "type": "bytes"
        }
      ],
      "name": "safeTransferFrom",
      "outputs": [],
      "payable": false,
      "stateMutability": "nonpayable",
      "type": "function"
    },
    {
      "constant": false,
      "inputs": [
        {
          "internalType": "address",
          "name": "to",
          "type": "address"
        },
        {
          "internalType": "bool",
          "name": "approved",
          "type": "bool"
        }
      ],
      "name": "setApprovalForAll",
      "outputs": [],
      "payable": false,
      "stateMutability": "nonpayable",
      "type": "function"
    },
    {
      "constant": true,
      "inputs": [
        {
          "internalType": "bytes4",
          "name": "interfaceId",
          "type": "bytes4"
        }
      ],
      "name": "supportsInterface",
      "outputs": [
        {
          "internalType": "bool",
          "name": "",
          "type": "bool"
        }
      ],
      "payable": false,
      "stateMutability": "view",
      "type": "function"
    },
    {
      "constant": true,
      "inputs": [],
      "name": "symbol",
      "outputs": [
        {
          "internalType": "string",
          "name": "",
          "type": "string"
        }
      ],
      "payable": false,
      "stateMutability": "view",
      "type": "function"
    },
    {
      "constant": false,
      "inputs": [
        {
          "internalType": "address",
          "name": "from",
          "type": "address"
        },
        {
          "internalType": "address",
          "name": "to",
          "type": "address"
        },
        {
          "internalType": "uint256",
          "name": "tokenId",
          "type": "uint256"
        }
      ],
      "name": "transferFrom",
      "outputs": [],
      "payable": false,
      "stateMutability": "nonpayable",
      "type": "function"
    },
    {
      "constant": false,
      "inputs": [],
      "name": "unpause",
      "outputs": [],
      "payable": false,
      "stateMutability": "nonpayable",
      "type": "function"
    },
    {
      "constant": true,
      "inputs": [
        {
          "internalType": "address",
          "name": "",
          "type": "address"
        }
      ],
      "name": "users",
      "outputs": [
        {
          "internalType": "bool",
          "name": "isRegistered",
          "type": "bool"
        }
      ],
      "payable": false,
      "stateMutability": "view",
      "type": "function"
    },
    {
      "constant": false,
      "inputs": [
        {
          "internalType": "bool",
          "name": "_isEscrow",
          "type": "bool"
        }
      ],
      "name": "register",
      "outputs": [],
      "payable": false,
      "stateMutability": "nonpayable",
      "type": "function"
    },
    {
      "constant": false,
      "inputs": [
        {
          "internalType": "bool",
          "name": "_isEscrow",
          "type": "bool"
        }
      ],
      "name": "unregister",
      "outputs": [],
      "payable": false,
      "stateMutability": "nonpayable",
      "type": "function"
    },
    {
      "constant": false,
      "inputs": [
        {
          "internalType": "uint256",
          "name": "_propertyId",
          "type": "uint256"
        },
        {
          "internalType": "uint256",
          "name": "_value",
          "type": "uint256"
        }
      ],
      "name": "addNewProperty",
      "outputs": [],
      "payable": true,
      "stateMutability": "payable",
      "type": "function"
    },
    {
      "constant": false,
      "inputs": [
        {
          "internalType": "address",
          "name": "_escrow",
          "type": "address"
        }
      ],
      "name": "addEscrow",
      "outputs": [],
      "payable": true,
      "stateMutability": "payable",
      "type": "function"
    },
    {
      "constant": false,
      "inputs": [
        {
          "internalType": "address payable",
          "name": "_escrow",
          "type": "address"
        },
        {
          "internalType": "address",
          "name": "_buyer",
          "type": "address"
        },
        {
          "internalType": "uint256",
          "name": "_coinId",
          "type": "uint256"
        }
      ],
      "name": "signAgreement",
      "outputs": [],
      "payable": false,
      "stateMutability": "nonpayable",
      "type": "function"
    },
    {
      "constant": false,
      "inputs": [
        {
          "internalType": "uint256",
          "name": "target",
          "type": "uint256"
        },
        {
          "internalType": "uint256",
          "name": "given",
          "type": "uint256"
        }
      ],
      "name": "_refundExcess",
      "outputs": [
        {
          "internalType": "uint256",
          "name": "",
          "type": "uint256"
        }
      ],
      "payable": true,
      "stateMutability": "payable",
      "type": "function"
    },
    {
      "constant": false,
      "inputs": [
        {
          "internalType": "address payable",
          "name": "_to",
          "type": "address"
        }
      ],
      "name": "transferEth",
      "outputs": [],
      "payable": true,
      "stateMutability": "payable",
      "type": "function"
    },
    {
      "constant": false,
      "inputs": [
        {
          "internalType": "address payable",
          "name": "_from",
          "type": "address"
        },
        {
          "internalType": "address payable",
          "name": "_to",
          "type": "address"
        },
        {
          "internalType": "uint256",
          "name": "_coinId",
          "type": "uint256"
        }
      ],
      "name": "transferProperty",
      "outputs": [],
      "payable": true,
      "stateMutability": "payable",
      "type": "function"
    }
  ],
  "bytecode": "0x60806040526200001c6301ffc9a760e01b620000e960201b60201c565b620000346380ac58cd60e01b620000e960201b60201c565b6200005462000048620001f260201b60201c565b620001fa60201b60201c565b6000600760006101000a81548160ff02191690831515021790555030600a60006101000a81548173ffffffffffffffffffffffffffffffffffffffff021916908373ffffffffffffffffffffffffffffffffffffffff160217905550620000e3600a60009054906101000a900473ffffffffffffffffffffffffffffffffffffffff166200025b60201b60201c565b620004ce565b63ffffffff60e01b817bffffffffffffffffffffffffffffffffffffffffffffffffffffffff1916141562000186576040517f08c379a000000000000000000000000000000000000000000000000000000000815260040180806020018281038252601c8152602001807f4552433136353a20696e76616c696420696e746572666163652069640000000081525060200191505060405180910390fd5b6001600080837bffffffffffffffffffffffffffffffffffffffffffffffffffffffff19167bffffffffffffffffffffffffffffffffffffffffffffffffffffffff1916815260200190815260200160002060006101000a81548160ff02191690831515021790555050565b600033905090565b62000215816006620002e660201b62004bc61790919060201c565b8073ffffffffffffffffffffffffffffffffffffffff167f6719d08c1888103bea251a4ed56406bd0c3e69723c8a1686e017e7bbe159b6f860405160405180910390a250565b6200027b6200026f620001f260201b60201c565b620003ca60201b60201c565b620002d2576040517f08c379a0000000000000000000000000000000000000000000000000000000008152600401808060200182810382526030815260200180620059066030913960400191505060405180910390fd5b620002e381620001fa60201b60201c565b50565b620002f88282620003ee60201b60201c565b156200036c576040517f08c379a000000000000000000000000000000000000000000000000000000000815260040180806020018281038252601f8152602001807f526f6c65733a206163636f756e7420616c72656164792068617320726f6c650081525060200191505060405180910390fd5b60018260000160008373ffffffffffffffffffffffffffffffffffffffff1673ffffffffffffffffffffffffffffffffffffffff16815260200190815260200160002060006101000a81548160ff0219169083151502179055505050565b6000620003e7826006620003ee60201b620048001790919060201c565b9050919050565b60008073ffffffffffffffffffffffffffffffffffffffff168273ffffffffffffffffffffffffffffffffffffffff16141562000477576040517f08c379a0000000000000000000000000000000000000000000000000000000008152600401808060200182810382526022815260200180620059366022913960400191505060405180910390fd5b8260000160008373ffffffffffffffffffffffffffffffffffffffff1673ffffffffffffffffffffffffffffffffffffffff16815260200190815260200160002060009054906101000a900460ff16905092915050565b61542880620004de6000396000f3fe6080604052600436106101e35760003560e01c80636ef8d66d11610102578063b88d4fde11610095578063cc224d4411610064578063cc224d4414610c55578063e4f53fcb14610c99578063e985e9c514610cd1578063f5357a2414610d5a576101e3565b8063b88d4fde14610a64578063baea078814610b76578063bddc08cf14610bc2578063be12314514610c18576101e3565b80638da5cb5b116100d15780638da5cb5b146108b757806395d89b411461090e578063a22cb4651461099e578063a87430ba146109fb576101e3565b80636ef8d66d146107d357806370a08231146107ea57806382dc1ec41461084f5780638456cb59146108a0576101e3565b806330df47af1161017a578063477230b211610149578063477230b2146106835780635c975abb146106ec5780636352211e1461071b5780636d6719e914610796576101e3565b806330df47af146105445780633f4ba83a1461058857806342842e0e1461059f57806346fbf68e1461061a576101e3565b8063095ea7b3116101b6578063095ea7b3146103b4578063149910821461040f5780631b2ef1ca1461047d57806323b872dd146104c9576101e3565b806301ffc9a7146101e857806306dfdb2d1461025a57806306fdde03146102a9578063081812fc14610339575b600080fd5b3480156101f457600080fd5b506102406004803603602081101561020b57600080fd5b8101908080357bffffffffffffffffffffffffffffffffffffffffffffffffffffffff19169060200190929190505050610dd5565b604051808215151515815260200191505060405180910390f35b34801561026657600080fd5b506102936004803603602081101561027d57600080fd5b8101908080359060200190929190505050610e3c565b6040518082815260200191505060405180910390f35b3480156102b557600080fd5b506102be610e8f565b6040518080602001828103825283818151815260200191508051906020019080838360005b838110156102fe5780820151818401526020810190506102e3565b50505050905090810190601f16801561032b5780820380516001836020036101000a031916815260200191505b509250505060405180910390f35b34801561034557600080fd5b506103726004803603602081101561035c57600080fd5b8101908080359060200190929190505050610ec8565b604051808273ffffffffffffffffffffffffffffffffffffffff1673ffffffffffffffffffffffffffffffffffffffff16815260200191505060405180910390f35b3480156103c057600080fd5b5061040d600480360360408110156103d757600080fd5b81019080803573ffffffffffffffffffffffffffffffffffffffff16906020019092919080359060200190929190505050610f63565b005b61047b6004803603606081101561042557600080fd5b81019080803573ffffffffffffffffffffffffffffffffffffffff169060200190929190803573ffffffffffffffffffffffffffffffffffffffff1690602001909291908035906020019092919050505061114a565b005b6104b36004803603604081101561049357600080fd5b810190808035906020019092919080359060200190929190505050611b74565b6040518082815260200191505060405180910390f35b3480156104d557600080fd5b50610542600480360360608110156104ec57600080fd5b81019080803573ffffffffffffffffffffffffffffffffffffffff169060200190929190803573ffffffffffffffffffffffffffffffffffffffff16906020019092919080359060200190929190505050611c3e565b005b6105866004803603602081101561055a57600080fd5b81019080803573ffffffffffffffffffffffffffffffffffffffff169060200190929190505050611cb4565b005b34801561059457600080fd5b5061059d612566565b005b3480156105ab57600080fd5b50610618600480360360608110156105c257600080fd5b81019080803573ffffffffffffffffffffffffffffffffffffffff169060200190929190803573ffffffffffffffffffffffffffffffffffffffff169060200190929190803590602001909291905050506126d4565b005b34801561062657600080fd5b506106696004803603602081101561063d57600080fd5b81019080803573ffffffffffffffffffffffffffffffffffffffff1690602001909291905050506126f4565b604051808215151515815260200191505060405180910390f35b34801561068f57600080fd5b506106d2600480360360208110156106a657600080fd5b81019080803573ffffffffffffffffffffffffffffffffffffffff169060200190929190505050612711565b604051808215151515815260200191505060405180910390f35b3480156106f857600080fd5b5061070161273c565b604051808215151515815260200191505060405180910390f35b34801561072757600080fd5b506107546004803603602081101561073e57600080fd5b8101908080359060200190929190505050612753565b604051808273ffffffffffffffffffffffffffffffffffffffff1673ffffffffffffffffffffffffffffffffffffffff16815260200191505060405180910390f35b3480156107a257600080fd5b506107d1600480360360208110156107b957600080fd5b8101908080351515906020019092919050505061281b565b005b3480156107df57600080fd5b506107e8612aa7565b005b3480156107f657600080fd5b506108396004803603602081101561080d57600080fd5b81019080803573ffffffffffffffffffffffffffffffffffffffff169060200190929190505050612ab9565b6040518082815260200191505060405180910390f35b34801561085b57600080fd5b5061089e6004803603602081101561087257600080fd5b81019080803573ffffffffffffffffffffffffffffffffffffffff169060200190929190505050612b8e565b005b3480156108ac57600080fd5b506108b5612bff565b005b3480156108c357600080fd5b506108cc612d6e565b604051808273ffffffffffffffffffffffffffffffffffffffff1673ffffffffffffffffffffffffffffffffffffffff16815260200191505060405180910390f35b34801561091a57600080fd5b50610923612d94565b6040518080602001828103825283818151815260200191508051906020019080838360005b83811015610963578082015181840152602081019050610948565b50505050905090810190601f1680156109905780820380516001836020036101000a031916815260200191505b509250505060405180910390f35b3480156109aa57600080fd5b506109f9600480360360408110156109c157600080fd5b81019080803573ffffffffffffffffffffffffffffffffffffffff169060200190929190803515159060200190929190505050612dcd565b005b348015610a0757600080fd5b50610a4a60048036036020811015610a1e57600080fd5b81019080803573ffffffffffffffffffffffffffffffffffffffff169060200190929190505050612f85565b604051808215151515815260200191505060405180910390f35b348015610a7057600080fd5b50610b7460048036036080811015610a8757600080fd5b81019080803573ffffffffffffffffffffffffffffffffffffffff169060200190929190803573ffffffffffffffffffffffffffffffffffffffff1690602001909291908035906020019092919080359060200190640100000000811115610aee57600080fd5b820183602082011115610b0057600080fd5b80359060200191846001830284011164010000000083111715610b2257600080fd5b91908080601f016020809104026020016040519081016040528093929190818152602001838380828437600081840152601f19601f820116905080830192505050505050509192919290505050612fb0565b005b610bac60048036036040811015610b8c57600080fd5b810190808035906020019092919080359060200190929190505050613028565b6040518082815260200191505060405180910390f35b348015610bce57600080fd5b50610bfb60048036036020811015610be557600080fd5b8101908080359060200190929190505050613110565b604051808381526020018281526020019250505060405180910390f35b348015610c2457600080fd5b50610c5360048036036020811015610c3b57600080fd5b81019080803515159060200190929190505050613141565b005b610c9760048036036020811015610c6b57600080fd5b81019080803573ffffffffffffffffffffffffffffffffffffffff1690602001909291905050506135c5565b005b610ccf60048036036040811015610caf57600080fd5b810190808035906020019092919080359060200190929190505050613976565b005b348015610cdd57600080fd5b50610d4060048036036040811015610cf457600080fd5b81019080803573ffffffffffffffffffffffffffffffffffffffff169060200190929190803573ffffffffffffffffffffffffffffffffffffffff169060200190929190505050613b15565b604051808215151515815260200191505060405180910390f35b348015610d6657600080fd5b50610dd360048036036060811015610d7d57600080fd5b81019080803573ffffffffffffffffffffffffffffffffffffffff169060200190929190803573ffffffffffffffffffffffffffffffffffffffff16906020019092919080359060200190929190505050613ba9565b005b6000806000837bffffffffffffffffffffffffffffffffffffffffffffffffffffffff19167bffffffffffffffffffffffffffffffffffffffffffffffffffffffff1916815260200190815260200160002060009054906101000a900460ff169050919050565b6000610e46614fe6565b60058381548110610e5357fe5b90600052602060002090600202016040518060400160405290816000820154815260200160018201548152505090508060200151915050919050565b6040518060400160405280600681526020017f5078436f696e000000000000000000000000000000000000000000000000000081525081565b6000610ed38261421f565b610f28576040517f08c379a000000000000000000000000000000000000000000000000000000000815260040180806020018281038252602c8152602001806152ff602c913960400191505060405180910390fd5b6002600083815260200190815260200160002060009054906101000a900473ffffffffffffffffffffffffffffffffffffffff169050919050565b6000610f6e82612753565b90508073ffffffffffffffffffffffffffffffffffffffff168373ffffffffffffffffffffffffffffffffffffffff161415610ff5576040517f08c379a00000000000000000000000000000000000000000000000000000000081526004018080602001828103825260218152602001806153a26021913960400191505060405180910390fd5b8073ffffffffffffffffffffffffffffffffffffffff16611014614291565b73ffffffffffffffffffffffffffffffffffffffff16148061104357506110428161103d614291565b613b15565b5b611098576040517f08c379a00000000000000000000000000000000000000000000000000000000081526004018080602001828103825260388152602001806152016038913960400191505060405180910390fd5b826002600084815260200190815260200160002060006101000a81548173ffffffffffffffffffffffffffffffffffffffff021916908373ffffffffffffffffffffffffffffffffffffffff160217905550818373ffffffffffffffffffffffffffffffffffffffff168273ffffffffffffffffffffffffffffffffffffffff167f8c5be1e5ebec7d5bd14f71427d1e84f3dd0314c0f7b2291e5b200ac8c7c3b92560405160405180910390a4505050565b600760009054906101000a900460ff16156111cd576040517f08c379a00000000000000000000000000000000000000000000000000000000081526004018080602001828103825260108152602001807f5061757361626c653a207061757365640000000000000000000000000000000081525060200191505060405180910390fd5b60011515600960003373ffffffffffffffffffffffffffffffffffffffff1673ffffffffffffffffffffffffffffffffffffffff16815260200190815260200160002060000160009054906101000a900460ff16151514611296576040517f08c379a00000000000000000000000000000000000000000000000000000000081526004018080602001828103825260198152602001807f4f6e6c7920657363726f772063616e2063616c6c20746869730000000000000081525060200191505060405180910390fd5b33828073ffffffffffffffffffffffffffffffffffffffff16600960008473ffffffffffffffffffffffffffffffffffffffff1673ffffffffffffffffffffffffffffffffffffffff16815260200190815260200160002060010160008373ffffffffffffffffffffffffffffffffffffffff1673ffffffffffffffffffffffffffffffffffffffff16815260200190815260200160002060020160009054906101000a900473ffffffffffffffffffffffffffffffffffffffff1673ffffffffffffffffffffffffffffffffffffffff16146113db576040517f08c379a000000000000000000000000000000000000000000000000000000000815260040180806020018281038252601d8152602001807f4e6f20657363726f772072656c6174696f6e736869702065786973747300000081525060200191505060405180910390fd5b33846113e5615000565b600960008473ffffffffffffffffffffffffffffffffffffffff1673ffffffffffffffffffffffffffffffffffffffff16815260200190815260200160002060010160008373ffffffffffffffffffffffffffffffffffffffff1673ffffffffffffffffffffffffffffffffffffffff1681526020019081526020016000206040518060c001604052908160008201548152602001600182015481526020016002820160009054906101000a900473ffffffffffffffffffffffffffffffffffffffff1673ffffffffffffffffffffffffffffffffffffffff1673ffffffffffffffffffffffffffffffffffffffff1681526020016003820160009054906101000a900473ffffffffffffffffffffffffffffffffffffffff1673ffffffffffffffffffffffffffffffffffffffff1673ffffffffffffffffffffffffffffffffffffffff1681526020016003820160149054906101000a900460ff161515151581526020016003820160159054906101000a900460ff16151515158152505090508060a001518015611579575080608001515b6115eb576040517f08c379a000000000000000000000000000000000000000000000000000000000815260040180806020018281038252601a8152602001807f4e6f74207369676e656420627920626f7468207061727469657300000000000081525060200191505060405180910390fd5b600960003373ffffffffffffffffffffffffffffffffffffffff1673ffffffffffffffffffffffffffffffffffffffff16815260200190815260200160002060010160008873ffffffffffffffffffffffffffffffffffffffff1673ffffffffffffffffffffffffffffffffffffffff16815260200190815260200160002060010154600960003373ffffffffffffffffffffffffffffffffffffffff1673ffffffffffffffffffffffffffffffffffffffff16815260200190815260200160002060010160008973ffffffffffffffffffffffffffffffffffffffff1673ffffffffffffffffffffffffffffffffffffffff168152602001908152602001600020600001541115611748576040517f08c379a00000000000000000000000000000000000000000000000000000000081526004018080602001828103825260288152602001806151416028913960400191505060405180910390fd5b34600960003373ffffffffffffffffffffffffffffffffffffffff1673ffffffffffffffffffffffffffffffffffffffff16815260200190815260200160002060010160008973ffffffffffffffffffffffffffffffffffffffff1673ffffffffffffffffffffffffffffffffffffffff168152602001908152602001600020600001541115611823576040517f08c379a000000000000000000000000000000000000000000000000000000000815260040180806020018281038252602c815260200180615376602c913960400191505060405180910390fd5b6000600960003373ffffffffffffffffffffffffffffffffffffffff1673ffffffffffffffffffffffffffffffffffffffff16815260200190815260200160002060010160008973ffffffffffffffffffffffffffffffffffffffff1673ffffffffffffffffffffffffffffffffffffffff16815260200190815260200160002060000154905060006118c0670de0b6b3a7640000830234613028565b90508973ffffffffffffffffffffffffffffffffffffffff166108fc829081150290604051600060405180830381858888f19350505050158015611908573d6000803e3d6000fd5b506119148a8a8a611c3e565b6000600960003373ffffffffffffffffffffffffffffffffffffffff1673ffffffffffffffffffffffffffffffffffffffff16815260200190815260200160002060010160008b73ffffffffffffffffffffffffffffffffffffffff1673ffffffffffffffffffffffffffffffffffffffff168152602001908152602001600020600001819055506000600960003373ffffffffffffffffffffffffffffffffffffffff1673ffffffffffffffffffffffffffffffffffffffff16815260200190815260200160002060010160008b73ffffffffffffffffffffffffffffffffffffffff1673ffffffffffffffffffffffffffffffffffffffff168152602001908152602001600020600101819055506000600960003373ffffffffffffffffffffffffffffffffffffffff1673ffffffffffffffffffffffffffffffffffffffff16815260200190815260200160002060010160008b73ffffffffffffffffffffffffffffffffffffffff1673ffffffffffffffffffffffffffffffffffffffff16815260200190815260200160002060030160006101000a81548173ffffffffffffffffffffffffffffffffffffffff021916908373ffffffffffffffffffffffffffffffffffffffff1602179055508973ffffffffffffffffffffffffffffffffffffffff167f502acadd90c32e221191b343f96a394286012ac25ed7e9d03e93f1280efa70528a8a604051808373ffffffffffffffffffffffffffffffffffffffff1673ffffffffffffffffffffffffffffffffffffffff1681526020018281526020019250505060405180910390a250505050505050505050565b6000611b7e614fe6565b6040518060400160405280858152602001670de0b6b3a764000085028152509050600060016005839080600181540180825580915050906001820390600052602060002090600202016000909192909190915060008201518160000155602082015181600101555050039050611bf43382614299565b7f529f17fa8b9a820ebe6dc231684c48b1423ffa355389b612cae044b7a5ba6b958186604051808381526020018281526020019250505060405180910390a1809250505092915050565b611c4f611c49614291565b826144b1565b611ca4576040517f08c379a00000000000000000000000000000000000000000000000000000000081526004018080602001828103825260318152602001806153c36031913960400191505060405180910390fd5b611caf8383836145a5565b505050565b600760009054906101000a900460ff1615611d37576040517f08c379a00000000000000000000000000000000000000000000000000000000081526004018080602001828103825260108152602001807f5061757361626c653a207061757365640000000000000000000000000000000081525060200191505060405180910390fd5b60011515600860003373ffffffffffffffffffffffffffffffffffffffff1673ffffffffffffffffffffffffffffffffffffffff16815260200190815260200160002060000160009054906101000a900460ff16151514611e00576040517f08c379a00000000000000000000000000000000000000000000000000000000081526004018080602001828103825260178152602001807f4f6e6c7920757365722063616e2063616c6c207468697300000000000000000081525060200191505060405180910390fd5b80338073ffffffffffffffffffffffffffffffffffffffff16600960008473ffffffffffffffffffffffffffffffffffffffff1673ffffffffffffffffffffffffffffffffffffffff16815260200190815260200160002060010160008373ffffffffffffffffffffffffffffffffffffffff1673ffffffffffffffffffffffffffffffffffffffff16815260200190815260200160002060020160009054906101000a900473ffffffffffffffffffffffffffffffffffffffff1673ffffffffffffffffffffffffffffffffffffffff1614611f45576040517f08c379a000000000000000000000000000000000000000000000000000000000815260040180806020018281038252601d8152602001807f4e6f20657363726f772072656c6174696f6e736869702065786973747300000081525060200191505060405180910390fd5b8233611f4f615000565b600960008473ffffffffffffffffffffffffffffffffffffffff1673ffffffffffffffffffffffffffffffffffffffff16815260200190815260200160002060010160008373ffffffffffffffffffffffffffffffffffffffff1673ffffffffffffffffffffffffffffffffffffffff1681526020019081526020016000206040518060c001604052908160008201548152602001600182015481526020016002820160009054906101000a900473ffffffffffffffffffffffffffffffffffffffff1673ffffffffffffffffffffffffffffffffffffffff1673ffffffffffffffffffffffffffffffffffffffff1681526020016003820160009054906101000a900473ffffffffffffffffffffffffffffffffffffffff1673ffffffffffffffffffffffffffffffffffffffff1673ffffffffffffffffffffffffffffffffffffffff1681526020016003820160149054906101000a900460ff161515151581526020016003820160159054906101000a900460ff16151515158152505090508060a0015180156120e3575080608001515b612155576040517f08c379a000000000000000000000000000000000000000000000000000000000815260040180806020018281038252601a8152602001807f4e6f74207369676e656420627920626f7468207061727469657300000000000081525060200191505060405180910390fd5b8560011515600960008373ffffffffffffffffffffffffffffffffffffffff1673ffffffffffffffffffffffffffffffffffffffff16815260200190815260200160002060000160009054906101000a900460ff16151514612202576040517f08c379a00000000000000000000000000000000000000000000000000000000081526004018080602001828103825260228152602001806151696022913960400191505060405180910390fd5b6000600960008373ffffffffffffffffffffffffffffffffffffffff1673ffffffffffffffffffffffffffffffffffffffff16815260200190815260200160002060010160003373ffffffffffffffffffffffffffffffffffffffff1673ffffffffffffffffffffffffffffffffffffffff16815260200190815260200160002060000154116122dd576040517f08c379a00000000000000000000000000000000000000000000000000000000081526004018080602001828103825260228152602001806151df6022913960400191505060405180910390fd5b6000600960008973ffffffffffffffffffffffffffffffffffffffff1673ffffffffffffffffffffffffffffffffffffffff16815260200190815260200160002060010160003373ffffffffffffffffffffffffffffffffffffffff1673ffffffffffffffffffffffffffffffffffffffff1681526020019081526020016000206000015490506000600960008a73ffffffffffffffffffffffffffffffffffffffff1673ffffffffffffffffffffffffffffffffffffffff16815260200190815260200160002060010160003373ffffffffffffffffffffffffffffffffffffffff1673ffffffffffffffffffffffffffffffffffffffff1681526020019081526020016000206001015490506000818303905060006123fe8234613028565b90508a73ffffffffffffffffffffffffffffffffffffffff166108fc829081150290604051600060405180830381858888f19350505050158015612446573d6000803e3d6000fd5b5080600960008d73ffffffffffffffffffffffffffffffffffffffff1673ffffffffffffffffffffffffffffffffffffffff16815260200190815260200160002060010160003373ffffffffffffffffffffffffffffffffffffffff1673ffffffffffffffffffffffffffffffffffffffff168152602001908152602001600020600101600082825401925050819055503373ffffffffffffffffffffffffffffffffffffffff167f2cc7cb9a23721de075b8d5eecf8be58836c9a5e041aeafd723b2ec7b2e35f77c8c83604051808373ffffffffffffffffffffffffffffffffffffffff1673ffffffffffffffffffffffffffffffffffffffff1681526020018281526020019250505060405180910390a25050505050505050505050565b612576612571614291565b6126f4565b6125cb576040517f08c379a00000000000000000000000000000000000000000000000000000000081526004018080602001828103825260308152602001806150bf6030913960400191505060405180910390fd5b600760009054906101000a900460ff1661264d576040517f08c379a00000000000000000000000000000000000000000000000000000000081526004018080602001828103825260148152602001807f5061757361626c653a206e6f742070617573656400000000000000000000000081525060200191505060405180910390fd5b6000600760006101000a81548160ff0219169083151502179055507f5db9ee0a495bf2e6ff9c91a7834c1ba4fdd244a5e8aa4e537bd38aeae4b073aa612691614291565b604051808273ffffffffffffffffffffffffffffffffffffffff1673ffffffffffffffffffffffffffffffffffffffff16815260200191505060405180910390a1565b6126ef83838360405180602001604052806000815250612fb0565b505050565b600061270a82600661480090919063ffffffff16565b9050919050565b60096020528060005260406000206000915090508060000160009054906101000a900460ff16905081565b6000600760009054906101000a900460ff16905090565b6000806001600084815260200190815260200160002060009054906101000a900473ffffffffffffffffffffffffffffffffffffffff169050600073ffffffffffffffffffffffffffffffffffffffff168173ffffffffffffffffffffffffffffffffffffffff161415612812576040517f08c379a00000000000000000000000000000000000000000000000000000000081526004018080602001828103825260298152602001806152636029913960400191505060405180910390fd5b80915050919050565b600760009054906101000a900460ff161561289e576040517f08c379a00000000000000000000000000000000000000000000000000000000081526004018080602001828103825260108152602001807f5061757361626c653a207061757365640000000000000000000000000000000081525060200191505060405180910390fd5b600860003373ffffffffffffffffffffffffffffffffffffffff1673ffffffffffffffffffffffffffffffffffffffff16815260200190815260200160002060000160009054906101000a900460ff16806129455750600960003373ffffffffffffffffffffffffffffffffffffffff1673ffffffffffffffffffffffffffffffffffffffff16815260200190815260200160002060000160009054906101000a900460ff165b61299a576040517f08c379a000000000000000000000000000000000000000000000000000000000815260040180806020018281038252602381526020018061528c6023913960400191505060405180910390fd5b80156129fb57600960003373ffffffffffffffffffffffffffffffffffffffff1673ffffffffffffffffffffffffffffffffffffffff168152602001908152602001600020600080820160006101000a81549060ff02191690555050612a52565b600860003373ffffffffffffffffffffffffffffffffffffffff1673ffffffffffffffffffffffffffffffffffffffff168152602001908152602001600020600080820160006101000a81549060ff021916905550505b3373ffffffffffffffffffffffffffffffffffffffff167f196c807bc3d19f613c2d336f2851a898b2885227bdd88e2f01c131558cfe433c82604051808215151515815260200191505060405180910390a250565b612ab7612ab2614291565b6148de565b565b60008073ffffffffffffffffffffffffffffffffffffffff168273ffffffffffffffffffffffffffffffffffffffff161415612b40576040517f08c379a000000000000000000000000000000000000000000000000000000000815260040180806020018281038252602a815260200180615239602a913960400191505060405180910390fd5b612b87600360008473ffffffffffffffffffffffffffffffffffffffff1673ffffffffffffffffffffffffffffffffffffffff168152602001908152602001600020614938565b9050919050565b612b9e612b99614291565b6126f4565b612bf3576040517f08c379a00000000000000000000000000000000000000000000000000000000081526004018080602001828103825260308152602001806150bf6030913960400191505060405180910390fd5b612bfc81614946565b50565b612c0f612c0a614291565b6126f4565b612c64576040517f08c379a00000000000000000000000000000000000000000000000000000000081526004018080602001828103825260308152602001806150bf6030913960400191505060405180910390fd5b600760009054906101000a900460ff1615612ce7576040517f08c379a00000000000000000000000000000000000000000000000000000000081526004018080602001828103825260108152602001807f5061757361626c653a207061757365640000000000000000000000000000000081525060200191505060405180910390fd5b6001600760006101000a81548160ff0219169083151502179055507f62e78cea01bee320cd4e420270b5ea74000d11b0c9f74754ebdbfc544b05a258612d2b614291565b604051808273ffffffffffffffffffffffffffffffffffffffff1673ffffffffffffffffffffffffffffffffffffffff16815260200191505060405180910390a1565b600a60009054906101000a900473ffffffffffffffffffffffffffffffffffffffff1681565b6040518060400160405280600381526020017f507843000000000000000000000000000000000000000000000000000000000081525081565b612dd5614291565b73ffffffffffffffffffffffffffffffffffffffff168273ffffffffffffffffffffffffffffffffffffffff161415612e76576040517f08c379a00000000000000000000000000000000000000000000000000000000081526004018080602001828103825260198152602001807f4552433732313a20617070726f766520746f2063616c6c65720000000000000081525060200191505060405180910390fd5b8060046000612e83614291565b73ffffffffffffffffffffffffffffffffffffffff1673ffffffffffffffffffffffffffffffffffffffff16815260200190815260200160002060008473ffffffffffffffffffffffffffffffffffffffff1673ffffffffffffffffffffffffffffffffffffffff16815260200190815260200160002060006101000a81548160ff0219169083151502179055508173ffffffffffffffffffffffffffffffffffffffff16612f30614291565b73ffffffffffffffffffffffffffffffffffffffff167f17307eab39ab6107e8899845ad3d59bd9653f200f220920489ca2b5937696c3183604051808215151515815260200191505060405180910390a35050565b60086020528060005260406000206000915090508060000160009054906101000a900460ff16905081565b612fc1612fbb614291565b836144b1565b613016576040517f08c379a00000000000000000000000000000000000000000000000000000000081526004018080602001828103825260318152602001806153c36031913960400191505060405180910390fd5b613022848484846149a0565b50505050565b6000600760009054906101000a900460ff16156130ad576040517f08c379a00000000000000000000000000000000000000000000000000000000081526004018080602001828103825260108152602001807f5061757361626c653a207061757365640000000000000000000000000000000081525060200191505060405180910390fd5b82821115613106573373ffffffffffffffffffffffffffffffffffffffff166108fc8484039081150290604051600060405180830381858888f193505050501580156130fd573d6000803e3d6000fd5b5082905061310a565b8190505b92915050565b6005818154811061311d57fe5b90600052602060002090600202016000915090508060000154908060010154905082565b600760009054906101000a900460ff16156131c4576040517f08c379a00000000000000000000000000000000000000000000000000000000081526004018080602001828103825260108152602001807f5061757361626c653a207061757365640000000000000000000000000000000081525060200191505060405180910390fd5b801561339f5760001515600860003373ffffffffffffffffffffffffffffffffffffffff1673ffffffffffffffffffffffffffffffffffffffff16815260200190815260200160002060000160009054906101000a900460ff16151514613276576040517f08c379a000000000000000000000000000000000000000000000000000000000815260040180806020018281038252602f8152602001806152d0602f913960400191505060405180910390fd5b60001515600960003373ffffffffffffffffffffffffffffffffffffffff1673ffffffffffffffffffffffffffffffffffffffff16815260200190815260200160002060000160009054906101000a900460ff1615151461333f576040517f08c379a000000000000000000000000000000000000000000000000000000000815260040180806020018281038252601c8152602001807f616c7265616479207265676973746572656420617320657363726f770000000081525060200191505060405180910390fd5b6001600960003373ffffffffffffffffffffffffffffffffffffffff1673ffffffffffffffffffffffffffffffffffffffff16815260200190815260200160002060000160006101000a81548160ff021916908315150217905550613570565b60001515600960003373ffffffffffffffffffffffffffffffffffffffff1673ffffffffffffffffffffffffffffffffffffffff16815260200190815260200160002060000160009054906101000a900460ff1615151461344b576040517f08c379a000000000000000000000000000000000000000000000000000000000815260040180806020018281038252602e8152602001806150ef602e913960400191505060405180910390fd5b60001515600860003373ffffffffffffffffffffffffffffffffffffffff1673ffffffffffffffffffffffffffffffffffffffff16815260200190815260200160002060000160009054906101000a900460ff16151514613514576040517f08c379a00000000000000000000000000000000000000000000000000000000081526004018080602001828103825260178152602001807f616c72656164792072656769737465726564207573657200000000000000000081525060200191505060405180910390fd5b6001600860003373ffffffffffffffffffffffffffffffffffffffff1673ffffffffffffffffffffffffffffffffffffffff16815260200190815260200160002060000160006101000a81548160ff0219169083151502179055505b3373ffffffffffffffffffffffffffffffffffffffff167fbcfc51f878aaa9637a08d3596fdbf7eae65424ef258f337e938402361f17922182604051808215151515815260200191505060405180910390a250565b600760009054906101000a900460ff1615613648576040517f08c379a00000000000000000000000000000000000000000000000000000000081526004018080602001828103825260108152602001807f5061757361626c653a207061757365640000000000000000000000000000000081525060200191505060405180910390fd5b60011515600860003373ffffffffffffffffffffffffffffffffffffffff1673ffffffffffffffffffffffffffffffffffffffff16815260200190815260200160002060000160009054906101000a900460ff16151514613711576040517f08c379a00000000000000000000000000000000000000000000000000000000081526004018080602001828103825260178152602001807f4f6e6c7920757365722063616e2063616c6c207468697300000000000000000081525060200191505060405180910390fd5b600073ffffffffffffffffffffffffffffffffffffffff16600960008373ffffffffffffffffffffffffffffffffffffffff1673ffffffffffffffffffffffffffffffffffffffff16815260200190815260200160002060010160003373ffffffffffffffffffffffffffffffffffffffff1673ffffffffffffffffffffffffffffffffffffffff16815260200190815260200160002060020160009054906101000a900473ffffffffffffffffffffffffffffffffffffffff1673ffffffffffffffffffffffffffffffffffffffff1614613838576040517f08c379a00000000000000000000000000000000000000000000000000000000081526004018080602001828103825260288152602001806151b76028913960400191505060405180910390fd5b33600960008373ffffffffffffffffffffffffffffffffffffffff1673ffffffffffffffffffffffffffffffffffffffff16815260200190815260200160002060010160003373ffffffffffffffffffffffffffffffffffffffff1673ffffffffffffffffffffffffffffffffffffffff16815260200190815260200160002060020160006101000a81548173ffffffffffffffffffffffffffffffffffffffff021916908373ffffffffffffffffffffffffffffffffffffffff1602179055503373ffffffffffffffffffffffffffffffffffffffff167fc648f60a6c1edb46d3e85d8cf6abe4ff8169df2af499bfde8967d6b34560e6d882604051808273ffffffffffffffffffffffffffffffffffffffff1673ffffffffffffffffffffffffffffffffffffffff16815260200191505060405180910390a250565b600760009054906101000a900460ff16156139f9576040517f08c379a00000000000000000000000000000000000000000000000000000000081526004018080602001828103825260108152602001807f5061757361626c653a207061757365640000000000000000000000000000000081525060200191505060405180910390fd5b60011515600860003373ffffffffffffffffffffffffffffffffffffffff1673ffffffffffffffffffffffffffffffffffffffff16815260200190815260200160002060000160009054906101000a900460ff16151514613ac2576040517f08c379a00000000000000000000000000000000000000000000000000000000081526004018080602001828103825260178152602001807f4f6e6c7920757365722063616e2063616c6c207468697300000000000000000081525060200191505060405180910390fd5b6000613ace8383611b74565b9050827fcc0cd49dd61ff7aacb513759c4c8ce217ef01c87bdc769c2289c2e87095907de8284604051808381526020018281526020019250505060405180910390a2505050565b6000600460008473ffffffffffffffffffffffffffffffffffffffff1673ffffffffffffffffffffffffffffffffffffffff16815260200190815260200160002060008373ffffffffffffffffffffffffffffffffffffffff1673ffffffffffffffffffffffffffffffffffffffff16815260200190815260200160002060009054906101000a900460ff16905092915050565b600760009054906101000a900460ff1615613c2c576040517f08c379a00000000000000000000000000000000000000000000000000000000081526004018080602001828103825260108152602001807f5061757361626c653a207061757365640000000000000000000000000000000081525060200191505060405180910390fd5b60011515600860003373ffffffffffffffffffffffffffffffffffffffff1673ffffffffffffffffffffffffffffffffffffffff16815260200190815260200160002060000160009054906101000a900460ff16151514613cf5576040517f08c379a00000000000000000000000000000000000000000000000000000000081526004018080602001828103825260178152602001807f4f6e6c7920757365722063616e2063616c6c207468697300000000000000000081525060200191505060405180910390fd5b82828073ffffffffffffffffffffffffffffffffffffffff16600960008473ffffffffffffffffffffffffffffffffffffffff1673ffffffffffffffffffffffffffffffffffffffff16815260200190815260200160002060010160008373ffffffffffffffffffffffffffffffffffffffff1673ffffffffffffffffffffffffffffffffffffffff16815260200190815260200160002060020160009054906101000a900473ffffffffffffffffffffffffffffffffffffffff1673ffffffffffffffffffffffffffffffffffffffff1614613e3a576040517f08c379a000000000000000000000000000000000000000000000000000000000815260040180806020018281038252601d8152602001807f4e6f20657363726f772072656c6174696f6e736869702065786973747300000081525060200191505060405180910390fd5b6000613e4584612753565b9050613e5084610e3c565b600960008873ffffffffffffffffffffffffffffffffffffffff1673ffffffffffffffffffffffffffffffffffffffff16815260200190815260200160002060010160008773ffffffffffffffffffffffffffffffffffffffff1673ffffffffffffffffffffffffffffffffffffffff1681526020019081526020016000206000018190555080600960008873ffffffffffffffffffffffffffffffffffffffff1673ffffffffffffffffffffffffffffffffffffffff16815260200190815260200160002060010160008773ffffffffffffffffffffffffffffffffffffffff1673ffffffffffffffffffffffffffffffffffffffff16815260200190815260200160002060030160006101000a81548173ffffffffffffffffffffffffffffffffffffffff021916908373ffffffffffffffffffffffffffffffffffffffff1602179055503373ffffffffffffffffffffffffffffffffffffffff168173ffffffffffffffffffffffffffffffffffffffff16141561407557613fd58685610f63565b6001600960008873ffffffffffffffffffffffffffffffffffffffff1673ffffffffffffffffffffffffffffffffffffffff16815260200190815260200160002060010160008773ffffffffffffffffffffffffffffffffffffffff1673ffffffffffffffffffffffffffffffffffffffff16815260200190815260200160002060030160146101000a81548160ff021916908315150217905550614195565b8473ffffffffffffffffffffffffffffffffffffffff163373ffffffffffffffffffffffffffffffffffffffff16146140f9576040517f08c379a00000000000000000000000000000000000000000000000000000000081526004018080602001828103825260268152602001806150676026913960400191505060405180910390fd5b6001600960008873ffffffffffffffffffffffffffffffffffffffff1673ffffffffffffffffffffffffffffffffffffffff16815260200190815260200160002060010160008773ffffffffffffffffffffffffffffffffffffffff1673ffffffffffffffffffffffffffffffffffffffff16815260200190815260200160002060030160156101000a81548160ff0219169083151502179055505b3373ffffffffffffffffffffffffffffffffffffffff167fd7b714ec8e1b2437452e90d4bda4b20e96bbdfed3e50809e4e2b133b0963f1368583604051808381526020018273ffffffffffffffffffffffffffffffffffffffff1673ffffffffffffffffffffffffffffffffffffffff1681526020019250505060405180910390a2505050505050565b6000806001600084815260200190815260200160002060009054906101000a900473ffffffffffffffffffffffffffffffffffffffff169050600073ffffffffffffffffffffffffffffffffffffffff168173ffffffffffffffffffffffffffffffffffffffff161415915050919050565b600033905090565b600073ffffffffffffffffffffffffffffffffffffffff168273ffffffffffffffffffffffffffffffffffffffff16141561433c576040517f08c379a00000000000000000000000000000000000000000000000000000000081526004018080602001828103825260208152602001807f4552433732313a206d696e7420746f20746865207a65726f206164647265737381525060200191505060405180910390fd5b6143458161421f565b156143b8576040517f08c379a000000000000000000000000000000000000000000000000000000000815260040180806020018281038252601c8152602001807f4552433732313a20746f6b656e20616c7265616479206d696e7465640000000081525060200191505060405180910390fd5b816001600083815260200190815260200160002060006101000a81548173ffffffffffffffffffffffffffffffffffffffff021916908373ffffffffffffffffffffffffffffffffffffffff160217905550614451600360008473ffffffffffffffffffffffffffffffffffffffff1673ffffffffffffffffffffffffffffffffffffffff168152602001908152602001600020614a12565b808273ffffffffffffffffffffffffffffffffffffffff16600073ffffffffffffffffffffffffffffffffffffffff167fddf252ad1be2c89b69c2b068fc378daa952ba7f163c4a11628f55a4df523b3ef60405160405180910390a45050565b60006144bc8261421f565b614511576040517f08c379a000000000000000000000000000000000000000000000000000000000815260040180806020018281038252602c81526020018061518b602c913960400191505060405180910390fd5b600061451c83612753565b90508073ffffffffffffffffffffffffffffffffffffffff168473ffffffffffffffffffffffffffffffffffffffff16148061458b57508373ffffffffffffffffffffffffffffffffffffffff1661457384610ec8565b73ffffffffffffffffffffffffffffffffffffffff16145b8061459c575061459b8185613b15565b5b91505092915050565b8273ffffffffffffffffffffffffffffffffffffffff166145c582612753565b73ffffffffffffffffffffffffffffffffffffffff1614614631576040517f08c379a000000000000000000000000000000000000000000000000000000000815260040180806020018281038252602981526020018061534d6029913960400191505060405180910390fd5b600073ffffffffffffffffffffffffffffffffffffffff168273ffffffffffffffffffffffffffffffffffffffff1614156146b7576040517f08c379a000000000000000000000000000000000000000000000000000000000815260040180806020018281038252602481526020018061511d6024913960400191505060405180910390fd5b6146c081614a28565b614707600360008573ffffffffffffffffffffffffffffffffffffffff1673ffffffffffffffffffffffffffffffffffffffff168152602001908152602001600020614ae6565b61474e600360008473ffffffffffffffffffffffffffffffffffffffff1673ffffffffffffffffffffffffffffffffffffffff168152602001908152602001600020614a12565b816001600083815260200190815260200160002060006101000a81548173ffffffffffffffffffffffffffffffffffffffff021916908373ffffffffffffffffffffffffffffffffffffffff160217905550808273ffffffffffffffffffffffffffffffffffffffff168473ffffffffffffffffffffffffffffffffffffffff167fddf252ad1be2c89b69c2b068fc378daa952ba7f163c4a11628f55a4df523b3ef60405160405180910390a4505050565b60008073ffffffffffffffffffffffffffffffffffffffff168273ffffffffffffffffffffffffffffffffffffffff161415614887576040517f08c379a000000000000000000000000000000000000000000000000000000000815260040180806020018281038252602281526020018061532b6022913960400191505060405180910390fd5b8260000160008373ffffffffffffffffffffffffffffffffffffffff1673ffffffffffffffffffffffffffffffffffffffff16815260200190815260200160002060009054906101000a900460ff16905092915050565b6148f2816006614b0990919063ffffffff16565b8073ffffffffffffffffffffffffffffffffffffffff167fcd265ebaf09df2871cc7bd4133404a235ba12eff2041bb89d9c714a2621c7c7e60405160405180910390a250565b600081600001549050919050565b61495a816006614bc690919063ffffffff16565b8073ffffffffffffffffffffffffffffffffffffffff167f6719d08c1888103bea251a4ed56406bd0c3e69723c8a1686e017e7bbe159b6f860405160405180910390a250565b6149ab8484846145a5565b6149b784848484614ca1565b614a0c576040517f08c379a000000000000000000000000000000000000000000000000000000000815260040180806020018281038252603281526020018061508d6032913960400191505060405180910390fd5b50505050565b6001816000016000828254019250508190555050565b600073ffffffffffffffffffffffffffffffffffffffff166002600083815260200190815260200160002060009054906101000a900473ffffffffffffffffffffffffffffffffffffffff1673ffffffffffffffffffffffffffffffffffffffff1614614ae35760006002600083815260200190815260200160002060006101000a81548173ffffffffffffffffffffffffffffffffffffffff021916908373ffffffffffffffffffffffffffffffffffffffff1602179055505b50565b614afe60018260000154614e9190919063ffffffff16565b816000018190555050565b614b138282614800565b614b68576040517f08c379a00000000000000000000000000000000000000000000000000000000081526004018080602001828103825260218152602001806152af6021913960400191505060405180910390fd5b60008260000160008373ffffffffffffffffffffffffffffffffffffffff1673ffffffffffffffffffffffffffffffffffffffff16815260200190815260200160002060006101000a81548160ff0219169083151502179055505050565b614bd08282614800565b15614c43576040517f08c379a000000000000000000000000000000000000000000000000000000000815260040180806020018281038252601f8152602001807f526f6c65733a206163636f756e7420616c72656164792068617320726f6c650081525060200191505060405180910390fd5b60018260000160008373ffffffffffffffffffffffffffffffffffffffff1673ffffffffffffffffffffffffffffffffffffffff16815260200190815260200160002060006101000a81548160ff0219169083151502179055505050565b6000614cc28473ffffffffffffffffffffffffffffffffffffffff16614edb565b614ccf5760019050614e89565b60008473ffffffffffffffffffffffffffffffffffffffff1663150b7a02614cf5614291565b8887876040518563ffffffff1660e01b8152600401808573ffffffffffffffffffffffffffffffffffffffff1673ffffffffffffffffffffffffffffffffffffffff1681526020018473ffffffffffffffffffffffffffffffffffffffff1673ffffffffffffffffffffffffffffffffffffffff16815260200183815260200180602001828103825283818151815260200191508051906020019080838360005b83811015614db1578082015181840152602081019050614d96565b50505050905090810190601f168015614dde5780820380516001836020036101000a031916815260200191505b5095505050505050602060405180830381600087803b158015614e0057600080fd5b505af1158015614e14573d6000803e3d6000fd5b505050506040513d6020811015614e2a57600080fd5b8101908080519060200190929190505050905063150b7a0260e01b7bffffffffffffffffffffffffffffffffffffffffffffffffffffffff1916817bffffffffffffffffffffffffffffffffffffffffffffffffffffffff1916149150505b949350505050565b6000614ed383836040518060400160405280601e81526020017f536166654d6174683a207375627472616374696f6e206f766572666c6f770000815250614f26565b905092915050565b60008060007fc5d2460186f7233c927e7db2dcc703c0e500b653ca82273b7bfad8045d85a47060001b9050833f91506000801b8214158015614f1d5750808214155b92505050919050565b6000838311158290614fd3576040517f08c379a00000000000000000000000000000000000000000000000000000000081526004018080602001828103825283818151815260200191508051906020019080838360005b83811015614f98578082015181840152602081019050614f7d565b50505050905090810190601f168015614fc55780820380516001836020036101000a031916815260200191505b509250505060405180910390fd5b5060008385039050809150509392505050565b604051806040016040528060008152602001600081525090565b6040518060c001604052806000815260200160008152602001600073ffffffffffffffffffffffffffffffffffffffff168152602001600073ffffffffffffffffffffffffffffffffffffffff168152602001600015158152602001600015158152509056fe4275796572206164647265737320646f65736e2774206d61746368207468652063616c6c65724552433732313a207472616e7366657220746f206e6f6e20455243373231526563656976657220696d706c656d656e746572506175736572526f6c653a2063616c6c657220646f6573206e6f742068617665207468652050617573657220726f6c65616c7265616479207265676973746572656420617320657363726f772c2063616e6e6f74206265206120757365724552433732313a207472616e7366657220746f20746865207a65726f2061646472657373496e73756666696369656e742062616c616e636520746f20627579207468652070726f70657274794f6e6c7920616c6c6f77656420746f207472616e7366657220746f20657363726f774552433732313a206f70657261746f7220717565727920666f72206e6f6e6578697374656e7420746f6b656e627579657220657363726f772072656c6174696f6e7368697020616c726561647920657869737473596f7520646f206e6f74206f77652074686520657363726f7720616e797468696e674552433732313a20617070726f76652063616c6c6572206973206e6f74206f776e6572206e6f7220617070726f76656420666f7220616c6c4552433732313a2062616c616e636520717565727920666f7220746865207a65726f20616464726573734552433732313a206f776e657220717565727920666f72206e6f6e6578697374656e7420746f6b656e4f6e6c7920726567697374657265642075736572732063616e2063616c6c2074686973526f6c65733a206163636f756e7420646f6573206e6f74206861766520726f6c65616c7265616479207265676973746572656420617320757365722c2063616e6e6f7420626520616e20657363726f774552433732313a20617070726f76656420717565727920666f72206e6f6e6578697374656e7420746f6b656e526f6c65733a206163636f756e7420697320746865207a65726f20616464726573734552433732313a207472616e73666572206f6620746f6b656e2074686174206973206e6f74206f776e6d73672e76616c75652073686f756c64206265203e3d2070726f706572747927732073616c652070726963654552433732313a20617070726f76616c20746f2063757272656e74206f776e65724552433732313a207472616e736665722063616c6c6572206973206e6f74206f776e6572206e6f7220617070726f766564a265627a7a723158205220c20bd71649eb41aba1bda8106e43f8dfceefb08f91356a0b418e4886d47664736f6c63430005100032506175736572526f6c653a2063616c6c657220646f6573206e6f742068617665207468652050617573657220726f6c65526f6c65733a206163636f756e7420697320746865207a65726f2061646472657373",
  "source": "pragma solidity ^0.5.0;\n\nimport \"@openzeppelin/contracts/math/SafeMath.sol\";\nimport \"@openzeppelin/contracts/lifecycle/Pausable.sol\";\n\nimport \"./PxCoinFactory.sol\";\n\n\n\n/**\n\n    @dev    This is the entry point for the property exchange application. This has functions           to do the following operations:\n\n            A user can register and unregister as a customer or an escrow\n            An agreement on sale of a property is signed by both the buyer and the seller\n            Payment is transferred from the buyer to the escrow once the agreement is signed\n            Escrow transfers ownership from the seller to the buyer once the agreement is signed and all the payment due is transferred\n\n */\n\ncontract PropertyExchange is PxCoinFactory, Pausable{\n\n    using SafeMath for uint;\n\n    struct User {\n        // to make sure that the user is not registered during signup\n        bool isRegistered;\n    }\n\n    struct Escrow {\n        bool isRegistered;\n        mapping(address => Agreement) agreements;\n    }\n\n    struct Agreement {\n        uint owed;\n        uint paid;\n        address buyer;\n        address seller;\n        bool signedBySeller;\n        bool signedByBuyer;\n    }\n\n    mapping(address => User) public users;\n    mapping(address => Escrow) public escrows;\n    address payable public owner;\n\n    constructor() public payable {\n        owner = address(uint160(address(this)));\n\n        // owner of the contract can pause the execution of the contract during emergency\n        addPauser(owner);\n    }\n\n    modifier onlyRegistered() {\n        require(users[msg.sender].isRegistered || escrows[msg.sender].isRegistered, \"Only registered users can call this\");\n        _;\n    }\n\n    modifier onlyUser() {\n        require(users[msg.sender].isRegistered == true, \"Only user can call this\");\n        _;\n    }\n\n\n    modifier onlyEscrow() {\n        require(escrows[msg.sender].isRegistered == true, \"Only escrow can call this\");\n        _;\n    }\n\n    modifier onlyOwner(uint _coinId) {\n        require(ownerOf(_coinId) == msg.sender,\n        \"Only owner of the given coin can call this\"\n        );\n        _;\n    }\n\n    modifier isOwedToEscrow(address payable _to) {\n        require(escrows[_to].isRegistered == true, \"Only allowed to transfer to escrow\");\n        require(escrows[_to].agreements[msg.sender].owed > 0, \"You do not owe the escrow anything\");\n        _;\n    }\n\n    modifier requireSignedByBothParties(address _escrow, address _buyer) {\n        Agreement memory _agreement = escrows[_escrow].agreements[_buyer];\n        require(_agreement.signedByBuyer && _agreement.signedBySeller, \"Not signed by both parties\");\n        _;\n    }\n\n    modifier requireEscrowBuyerRelationship(address _escrow, address _buyer) {\n        require(escrows[_escrow].agreements[_buyer].buyer == _buyer, \"No escrow relationship exists\");\n        _;\n    }\n\n\n    event LogUserRegistered(address indexed _user, bool _isEscrow);\n    event LogUserUnregistered(address indexed _user, bool _isEscrow);\n    event LogPropertyAdded(uint indexed _propertyId, uint _coinId, uint _value);\n    event LogAgreementSigned(address indexed _user, uint _coinId, address _owner);\n    event LogTransferToEscrow(address indexed _from, address _escrow, uint _amount);\n    event LogPropertyTransfer(address indexed _from, address _to, uint _coinId);\n    event LogEscrowAdded(address indexed _buyer, address _escrow);\n\n\n    /**\n        @dev    registers msg.sender with the contract for users of type Escrow or Customer\n        @param  _isEscrow true for escrow, false for other users\n     */\n    function register(bool _isEscrow) public whenNotPaused {\n\n        if (_isEscrow) {\n            require(users[msg.sender].isRegistered == false, \"already registered as user, cannot be an escrow\");\n            require(escrows[msg.sender].isRegistered == false, \"already registered as escrow\");\n            escrows[msg.sender].isRegistered = true;\n        }\n\n        else {\n            require(escrows[msg.sender].isRegistered == false, \"already registered as escrow, cannot be a user\");\n            require(users[msg.sender].isRegistered == false, \"already registered user\");\n            users[msg.sender].isRegistered = true;\n        }\n\n        emit LogUserRegistered(msg.sender, _isEscrow);\n\n    }\n\n    /**\n        @dev    unregisters msg.sender from the contract\n                requires:       only a registered user can call this\n        @param  _isEscrow true for escrow, false for customers\n\n     */\n    function unregister(bool _isEscrow) public whenNotPaused onlyRegistered  {\n        if(_isEscrow) {\n            delete escrows[msg.sender];\n        } else {\n            delete users[msg.sender];\n        }\n\n        emit LogUserUnregistered(msg.sender, _isEscrow);\n\n    }\n\n\n     /**\n\n        @dev    adds new property to the blockchain by generating a unique ERC721 PxCoin token\n                requires   -    only a registered user can call this\n        @param  _propertyId     unique id of the property\n        @param  _value          price of the property\n\n\n     */\n    function addNewProperty(uint _propertyId, uint _value) public payable whenNotPaused onlyUser  {\n        uint _coinId = mint(_propertyId, _value);\n\n        emit LogPropertyAdded(_propertyId, _coinId, _value);\n\n    }\n\n    /**\n\n        @dev    a buyer can add an escrow by calling this function\n        @param  _escrow     ethereum address of the escrow\n     */\n    function addEscrow(address _escrow) public payable whenNotPaused onlyUser  {\n        require(escrows[_escrow].agreements[msg.sender].buyer == address(0), \"buyer escrow relationship already exists\");\n\n        escrows[_escrow].agreements[msg.sender].buyer = msg.sender;\n\n        emit LogEscrowAdded(msg.sender, _escrow);\n    }\n\n\n\n    /**\n\n        @dev    when a buyer signs the agreement they owe money to the escrow\n        @dev    when a seller signs the agreement they approve the escrow to sell the house(coin) on their behalf\n\n                requires -  buyer and seller should be registered\n                         -  given escrow should be registered\n\n        @param  _escrow     escrow account\n        @param  _coinId     ERC721 coin associated with the property\n\n\n\n     */\n\n    function signAgreement(address payable _escrow, address _buyer, uint _coinId) public\n    whenNotPaused\n    onlyUser\n    requireEscrowBuyerRelationship(_escrow, _buyer)\n\n    {\n\n        address _ownerId = ownerOf(_coinId);\n\n        escrows[_escrow].agreements[_buyer].owed = getPropertyValue(_coinId);\n        escrows[_escrow].agreements[_buyer].seller = _ownerId;\n\n        if (_ownerId == msg.sender) {\n            approve(_escrow, _coinId);\n            escrows[_escrow].agreements[_buyer].signedBySeller = true;\n        } else {\n            require(msg.sender == _buyer, \"Buyer address doesn't match the caller\");\n            escrows[_escrow].agreements[_buyer].signedByBuyer = true;\n        }\n\n        emit LogAgreementSigned(msg.sender, _coinId, _ownerId);\n    }\n\n    /**\n        @dev    if msg.value is greater than required amount to be paid it is refunded to the msg.sender\n        @param  target - total due to be paid\n        @param  given - current amount the msg.sender supplied\n\n     */\n    function _refundExcess(uint target, uint given) public payable whenNotPaused returns (uint) {\n\n        if (given > target) {\n            msg.sender.transfer(given-target);\n            return target;\n        }\n\n        return given;\n    }\n\n\n    /**\n\n        @dev        buyer transfers eth to escrow as a payment for the property\n                    can make partial or full payments\n\n                    requires   requireSignedByBothParties - agreement should be signed by both            parties\n                               isOwedToEscrow - requires that the buyer owes money to the escrow before  transferring ether\n\n        @param      _to     escrow account address\n\n\n     */\n    function transferEth(address payable _to) public payable\n    whenNotPaused\n    onlyUser\n    requireEscrowBuyerRelationship(_to, msg.sender)\n    requireSignedByBothParties(_to, msg.sender)\n    isOwedToEscrow(_to)\n    {\n\n\n        uint _owed = escrows[_to].agreements[msg.sender].owed;\n\n        uint _paid = escrows[_to].agreements[msg.sender].paid;\n\n        uint _balance = _owed - _paid;\n\n        uint _amountToBePaid = _refundExcess(_balance, msg.value);\n\n        _to.transfer(_amountToBePaid);\n\n        escrows[_to].agreements[msg.sender].paid += _amountToBePaid;\n\n        emit LogTransferToEscrow(msg.sender, _to, _amountToBePaid);\n    }\n\n    /**\n\n        @dev        transfer property from buyer to seller\n        @dev        check if the property's value in ether has been paid, if equal, transfer property from seller to buyer\n        requires   - only the escrow can call this\n                    - agreement should be signed by both parties\n                    - the calling escrow should be authorized to transfer this property\n                    - all the payment needed should be cleared before transferring the property\n     */\n\n    function transferProperty(address payable _from, address payable _to, uint _coinId) public payable\n    whenNotPaused\n    onlyEscrow\n    requireEscrowBuyerRelationship(msg.sender, _to)\n    requireSignedByBothParties(msg.sender, _to)\n     {\n\n        require(escrows[msg.sender].agreements[_to].owed <= escrows[msg.sender].agreements[_to].paid, \"Insufficient balance to buy the property\");\n        require(escrows[msg.sender].agreements[_to].owed <= msg.value, \"msg.value should be >= property's sale price\");\n\n\n        uint _owed = escrows[msg.sender].agreements[_to].owed;\n\n        // refund excess amount provided as msg.value\n        uint _amountToBePaid = _refundExcess(_owed*1 ether, msg.value);\n\n        // transfer the money from escrow to seller\n        _from.transfer(_amountToBePaid);\n\n        // transfer the ownership of the coin\n        transferFrom(address(_from), address(_to), _coinId);\n\n        escrows[msg.sender].agreements[_to].owed = 0 ether;\n        escrows[msg.sender].agreements[_to].paid = 0 ether;\n        escrows[msg.sender].agreements[_to].seller = address(0x0);\n\n        emit LogPropertyTransfer(_from, _to, _coinId);\n    }\n\n\n\n}",
  "sourcePath": "/home/sui41/Documents/cryptogig/aSAPhustle/propertyExchange/property-exchange/contracts/PropertyExchange.sol",
  "compiler": {
    "name": "solc",
    "version": "0.5.16+commit.9c3226ce.Emscripten.clang"
  },
  "schemaVersion": "3.4.3",
  "updatedAt": "2022-02-09T09:39:46.469Z",
  "networkType": "ethereum",
  "devdoc": {
    "details": "This is the entry point for the property exchange application. This has functions           to do the following operations: A user can register and unregister as a customer or an escrow An agreement on sale of a property is signed by both the buyer and the seller Payment is transferred from the buyer to the escrow once the agreement is signed Escrow transfers ownership from the seller to the buyer once the agreement is signed and all the payment due is transferred",
    "methods": {
      "_refundExcess(uint256,uint256)": {
        "details": "if msg.value is greater than required amount to be paid it is refunded to the msg.sender",
        "params": {
          "given": "- current amount the msg.sender supplied",
          "target": "- total due to be paid"
        }
      },
      "addEscrow(address)": {
        "details": "a buyer can add an escrow by calling this function",
        "params": {
          "_escrow": "ethereum address of the escrow"
        }
      },
      "addNewProperty(uint256,uint256)": {
        "details": "adds new property to the blockchain by generating a unique ERC721 PxCoin token requires   -    only a registered user can call this",
        "params": {
          "_propertyId": "unique id of the property",
          "_value": "price of the property"
        }
      },
      "approve(address,uint256)": {
        "details": "Approves another address to transfer the given token ID The zero address indicates there is no approved address. There can only be one approved address per token at a given time. Can only be called by the token owner or an approved operator.",
        "params": {
          "to": "address to be approved for the given token ID",
          "tokenId": "uint256 ID of the token to be approved"
        }
      },
      "balanceOf(address)": {
        "details": "Gets the balance of the specified address.",
        "params": {
          "owner": "address to query the balance of"
        },
        "return": "uint256 representing the amount owned by the passed address"
      },
      "getApproved(uint256)": {
        "details": "Gets the approved address for a token ID, or zero if no address set Reverts if the token ID does not exist.",
        "params": {
          "tokenId": "uint256 ID of the token to query the approval of"
        },
        "return": "address currently approved for the given token ID"
      },
      "getPropertyValue(uint256)": {
        "details": "retrieves given coin's value in ether",
        "params": {
          "_coinId": "a uint identifier associated with a unique PxCoin"
        },
        "return": "_valueInEth returns the given coin's value in ether"
      },
      "isApprovedForAll(address,address)": {
        "details": "Tells whether an operator is approved by a given owner.",
        "params": {
          "operator": "operator address which you want to query the approval of",
          "owner": "owner address which you want to query the approval of"
        },
        "return": "bool whether the given operator is approved by the given owner"
      },
      "mint(uint256,uint256)": {
        "details": "generates an ERC721 token for the given property ID",
        "params": {
          "_propertyId": "a uint identifier associated with the property",
          "_value": "the property's value in ether"
        },
        "return": "_coinId - a unique ERC721 token ID generated for the property"
      },
      "ownerOf(uint256)": {
        "details": "Gets the owner of the specified token ID.",
        "params": {
          "tokenId": "uint256 ID of the token to query the owner of"
        },
        "return": "address currently marked as the owner of the given token ID"
      },
      "pause()": {
        "details": "Called by a pauser to pause, triggers stopped state."
      },
      "paused()": {
        "details": "Returns true if the contract is paused, and false otherwise."
      },
      "register(bool)": {
        "details": "registers msg.sender with the contract for users of type Escrow or Customer",
        "params": {
          "_isEscrow": "true for escrow, false for other users"
        }
      },
      "safeTransferFrom(address,address,uint256)": {
        "details": "Safely transfers the ownership of a given token ID to another address If the target address is a contract, it must implement {IERC721Receiver-onERC721Received}, which is called upon a safe transfer, and return the magic value `bytes4(keccak256(\"onERC721Received(address,address,uint256,bytes)\"))`; otherwise, the transfer is reverted. Requires the msg.sender to be the owner, approved, or operator",
        "params": {
          "from": "current owner of the token",
          "to": "address to receive the ownership of the given token ID",
          "tokenId": "uint256 ID of the token to be transferred"
        }
      },
      "safeTransferFrom(address,address,uint256,bytes)": {
        "details": "Safely transfers the ownership of a given token ID to another address If the target address is a contract, it must implement {IERC721Receiver-onERC721Received}, which is called upon a safe transfer, and return the magic value `bytes4(keccak256(\"onERC721Received(address,address,uint256,bytes)\"))`; otherwise, the transfer is reverted. Requires the _msgSender() to be the owner, approved, or operator",
        "params": {
          "_data": "bytes data to send along with a safe transfer check",
          "from": "current owner of the token",
          "to": "address to receive the ownership of the given token ID",
          "tokenId": "uint256 ID of the token to be transferred"
        }
      },
      "setApprovalForAll(address,bool)": {
        "details": "Sets or unsets the approval of a given operator An operator is allowed to transfer all tokens of the sender on their behalf.",
        "params": {
          "approved": "representing the status of the approval to be set",
          "to": "operator address to set the approval"
        }
      },
      "signAgreement(address,address,uint256)": {
        "details": "when a buyer signs the agreement they owe money to the escrowwhen a seller signs the agreement they approve the escrow to sell the house(coin) on their behalf requires -  buyer and seller should be registered -  given escrow should be registered",
        "params": {
          "_coinId": "ERC721 coin associated with the property",
          "_escrow": "escrow account"
        }
      },
      "supportsInterface(bytes4)": {
        "details": "See {IERC165-supportsInterface}.     * Time complexity O(1), guaranteed to always use less than 30 000 gas."
      },
      "transferEth(address)": {
        "details": "buyer transfers eth to escrow as a payment for the property can make partial or full payments requires   requireSignedByBothParties - agreement should be signed by both            parties isOwedToEscrow - requires that the buyer owes money to the escrow before  transferring ether",
        "params": {
          "_to": "escrow account address"
        }
      },
      "transferFrom(address,address,uint256)": {
        "details": "Transfers the ownership of a given token ID to another address. Usage of this method is discouraged, use {safeTransferFrom} whenever possible. Requires the msg.sender to be the owner, approved, or operator.",
        "params": {
          "from": "current owner of the token",
          "to": "address to receive the ownership of the given token ID",
          "tokenId": "uint256 ID of the token to be transferred"
        }
      },
      "transferProperty(address,address,uint256)": {
        "details": "transfer property from buyer to sellercheck if the property's value in ether has been paid, if equal, transfer property from seller to buyer requires   - only the escrow can call this - agreement should be signed by both parties - the calling escrow should be authorized to transfer this property - all the payment needed should be cleared before transferring the property"
      },
      "unpause()": {
        "details": "Called by a pauser to unpause, returns to normal state."
      },
      "unregister(bool)": {
        "details": "unregisters msg.sender from the contract requires:       only a registered user can call this",
        "params": {
          "_isEscrow": "true for escrow, false for customers"
        }
      }
    }
  },
  "userdoc": {
    "methods": {}
  }
}